:020000040800F2
:100000007006002089010008550200084D02000812
:1000100051020008450200088D030008000000009E
:100020000000000000000000000000005D02000869
:100030004902000800000000590200087902000887
:10004000A3010008A3010008A3010008A301000800
:10005000A3010008A3010008A3010008A3010008F0
:10006000A3010008A3010008A3010008A3010008E0
:10007000A3010008A3010008A3010008A3010008D0
:10008000A3010008A3010008A3010008A3010008C0
:10009000A3010008A3010008A3010008A3010008B0
:1000A000A3010008A3010008A3010008A3010008A0
:1000B000A3010008A3010008A3010008A301000890
:1000C000A3010008A3010008A3010008A301000880
:1000D000A3010008A3010008A3010008A301000870
:1000E000A3010008A3010008A301000800F002F822
:1000F00000F03AF80AA090E8000C82448344AAF188
:100100000107DA4501D100F02FF8AFF2090EBAE885
:100110000F0013F0010F18BFFB1A43F0010318473B
:10012000BC020000DC020000103A24BF78C878C18D
:10013000FAD8520724BF30C830C144BF04680C60ED
:10014000704700000023002400250026103A28BF35
:1001500078C1FBD8520728BF30C148BF0B60704739
:100160001FB51FBD10B510BD00F031F81146FFF7E7
:10017000F7FF00F02FF900F04FF803B4FFF7F2FF9C
:1001800003BC00F057F800000948804709480047C1
:10019000FEE7FEE7FEE7FEE7FEE7FEE7FEE7FEE737
:1001A000FEE7FEE704480549054A064B7047000094
:1001B0007D020008ED00000870000020700600209D
:1001C000700200207002002070477047704775462B
:1001D00000F02CF8AE4605006946534620F00700B3
:1001E000854618B020B5FFF7DDFFBDE820404FF091
:1001F00000064FF000074FF000084FF0000BAC4630
:10020000ACE8C009ACE8C009ACE8C009ACE8C0097A
:1002100021F007018D46704710B50446AFF300800A
:100220002046BDE81040FFF7A8BF00000048704717
:100230000800002001491820ABBEFEE7260002009E
:1002400070470000FEE7000070470000FEE7000076
:10025000FEE7000070470000704700007047000094
:100260004EF21001CEF200010A68042822F00402C6
:1002700008BF04320A6070477047000082B041F244
:100280000400C4F2020050F8041C002241F00101F5
:1002900040F8041C0168CFF6FF021140016050F8DD
:1002A000041C4FF6FF72CFF6F662114040F8041CB2
:1002B00050F8041C21F4802140F8041C016821F44A
:1002C000FE0101604FF41F01416000210191009186
:1002D00050F8041C41F4803140F8041C50F8041C10
:1002E00001F400310091019901310191009919B98E
:1002F0000199B1F5A06FF1D150F8041C890354BFE6
:100300000021012100910099012936D142F200011A
:10031000C4F202010A6842F010020A600A6822F080
:1003200007020A600A6842F002020A60016801607E
:1003300001680160016841F480610160016821F495
:100340007C110160016841F4E811016050F8041C5F
:1003500041F0807140F8041C50F8041C8901FBD561
:10036000016821F003010160016841F002010160B0
:10037000016801F00C010829FAD14EF60850CEF2BE
:1003800000004FF00061016002B07047FEE700001E
:1003900080B56FF00400FFF763FF40F20000C2F287
:1003A000000000684DF68361C4F21B31A0FB01011F
:1003B00040F26A02480DC2F200021070C1F34750C9
:1003C0004FF47A71484340F26801C2F2000108809C
:1003D00080BD0000FFF7DCFFFEE70000000400081E
:1003E00000000020080000002801000808040008A0
:1003F000080000206806000044010008000000001A
:0804000000A24A040000000004
:04000005080000ED02
:00000001FF
